:020000040800F2
:1000000000800120D52C0008772C0008792C0008EE
:100010007B2C00087D2C00087F2C000800000000CD
:10002000000000000000000000000000812C00081B
:10003000832C000800000000852C0008872C000895
:10004000252D0008252D0008252D0008252D000848
:10005000252D0008252D0008252D0008252D000838
:10006000252D0008252D0008252D0008252D000828
:10007000912C0008252D0008A12C0008252D000832
:10008000252D0008252D0008252D0008252D000808
:10009000252D0008252D0008252D0008252D0008F8
:1000A000252D0008252D0008252D0008252D0008E8
:1000B000252D0008252D0008252D0008252D0008D8
:1000C000252D0008252D0008252D0008252D0008C8
:1000D000252D0008252D0008252D0008B12C00082D
:1000E000252D0008252D0008252D0008252D0008A8
:1000F000252D0008252D0008252D0008252D000898
:10010000252D0008252D0008252D0008252D000887
:10011000252D0008252D0008252D0008252D000877
:10012000252D0008252D0008252D0008252D000867
:10013000252D0008252D0008252D0008252D000857
:10014000252D0008252D0008252D0008252D000847
:10015000252D0008252D0008252D0008252D000837
:10016000252D0008252D0008252D0008252D000827
:10017000252D0008252D00080000000000000000CB
:08018000252D0008252D0008C3
:1001880053B94AB9002908BF00281CBF4FF0FF31F6
:100198004FF0FF3000F00CB8ADF1080C6DE904CE5B
:1001A80002F0EAFDDDF804E0DDE9022304B070475F
:1001B800704700BF10B5054C237833B9044B13B111
:1001C8000448AFF300800123237010BD1000002005
:1001D800000000007830000808B5034B1BB1034944
:1001E8000348AFF3008008BD0000000014000020A1
:1001F800783000082DE9F0418AB005AD0024059457
:100208000694079408940994214BDA6C42F0400252
:10021800DA64DA6C02F040020192019ADA6C42F078
:100228001002DA64DA6C02F010020292029ADA6CB6
:1002380042F00202DA64DA6C02F002020392039AD4
:10024800DA6C42F00802DA64DB6C03F0080304930A
:10025800049BDFF8448022464FF48041404600F07A
:1002680093FE4FF480470597012606960794089455
:100278002946404600F088FD05970696079408949D
:100288002946044800F080FD0AB0BDE8F08100BFAF
:1002980000100240001800480004004800B583B070
:1002A8000E4B9A6C42F001029A649B6C03F00103B6
:1002B8000193019B002211460C2000F09BF90C20B1
:1002C80000F0A8F9002211460E2000F093F90E2044
:1002D80000F0A0F903B05DF804FB00BF0010024075
:1002E800014B01221A60704730200020014B012287
:1002F8001A6070472C20002008B572B64FF4804170
:10030800034800F046FE322000F00CF9F6E700BF83
:100318000004004808B51948194B036000224260E0
:10032800012303724372C261C8220262436200F071
:1003380069FAE8B91348144B0360012202710023DB
:1003480083601921C160036143618361C361042132
:10035800016243628262C3620323036300F0CEF941
:1003680040B901220949054800F0E0FA20B908BD62
:10037800FFF7C2FFFFF7C0FFFFF7BEFF8421002091
:10038800006101404C21002040600140040002004F
:1003980008B50B480B4B03604FF4612343600023FF
:1003A8008360C36003610C2242618361C36103629D
:1003B800436202F02AFC00B908BDFFF79DFF00BFA9
:1003C8007C2000200048004000B597B0442200215E
:1003D80005A802F0A4FC0023009301930293039361
:1003E80004934FF4007000F037FF28BB10230593E7
:1003F80001220B9200230C9360230D9302230F9389
:100408001092119228221292072213921493159394
:1004180005A801F005F888B90F2300930323019379
:1004280000230293039304930421684601F006FB1A
:1004380030B917B05DF804FBFFF75EFFFFF75CFF0C
:10044800FFF75AFF08B500F04BF8FFF7BDFFFFF7BD
:10045800D1FEFFF723FFFFF75DFFFFF799FF4FF48A
:100468008041084800F095FD322000F05BF84FF419
:1004780000620549054800F081FA00B9FEE7FFF778
:100488003BFF00BF000400482C000020842100200E
:10049800104B1B780BB90120704710B504464FF478
:1004A8007A70B0FBF3F30C4A1068B0FBF3F000F07D
:1004B800B5F868B90F2C01D901200AE000222146BD
:1004C8004FF0FF3000F096F8044B1C60002000E06D
:1004D800012010BD000000200800002004000020BA
:1004E80010B5032000F074F80020FFF7D1FF10B119
:1004F8000124204610BD044600F054FDF9E7000031
:10050800034B1B78034A11680B441360704700BF04
:1005180000000020D8210020014B1868704700BF58
:10052800D821002038B50446FFF7F6FF0546B4F198
:10053800FF3F02D0044B1B781C44FFF7EDFF401B24
:10054800A042FAD338BD00BF00000020002807DB16
:1005580000F01F02400901239340024A42F820306C
:10056800704700BF00E100E0002808DB0901C9B2BC
:1005780000F1604000F5614080F80013704700F01A
:100588000F000901C9B2014B1954704714ED00E07E
:1005980000B500F00700C0F1070CBCF1040F28BF3C
:1005A8004FF0040C031D062B0FD9C31E4FF0FF3E5E
:1005B8000EFA0CF021EA000199400EFA03FE22EA35
:1005C8000E0241EA02005DF804FB0023EEE700009A
:1005D800074AD36823F4E0631B041B0C000200F4F1
:1005E800E060034343F0BF6343F40033D3607047D4
:1005F80000ED00E010B50446054BD868C0F30220B2
:10060800FFF7C6FF01462046FFF7AEFF10BD00BF4B
:1006180000ED00E008B5FFF799FF08BD0138B0F11B
:10062800807F0BD24FF0E0235861054AF02182F811
:1006380023100020986107221A6170470120704733
:1006480000ED00E0124B984215D02033984214D0A8
:100658002033984213D04033984212D02033984226
:1006680011D02033984210D02033984201D0032073
:10067800704707207047002070470120704702200C
:10068800704704207047052070470620704700BF58
:1006980000600140436B63B90268136843F4003398
:1006A800136090F84C30012B26D0042380F84C308E
:1006B80070470268136823F0010313600268136827
:1006C80043F4002313600268136843F001031360C6
:1006D80090F84C30032BE4D1836B23B9026813687C
:1006E80043F00203136090F84030012B02D001233D
:1006F8008364D6E7436CFBE70223D7E7002878D06A
:1007080010B504460068FFF79DFF3B4B53F82030B7
:100718000BB1012010BD204600F0D6FC374B1A68FB
:1007280001321A601B68012B45D02268136823F434
:100738007143136021680A68236960690343A069EB
:10074800034313430B602268136823F00F031360FD
:1007580021680B68E269206A024313430B60226830
:10076800936823F45F03936020688368626AA16AD0
:10077800013942EA0142134383602268536803F057
:100788000703536021684A68E06A236BDB0043EA89
:10079800002313434B602268136843F080031360FF
:1007A800012384F834302068FFF74CFF124B43F8DC
:1007B80020400020AEE7124B1A6822F080421A60EF
:1007C8001A68A1680A431A601A6822F47F021A603C
:1007D8002379012B05D00A4A136843F000431360BC
:1007E800A3E707490B68E268013A43EA02430B6052
:1007F800F1E70120704700BFDC210020FC21002028
:1008080000600140002800F08A8010B504460268A4
:10081800454B9A425DD00023236301226264A2649F
:100828002365204600F0D6FB2268136823F40023D2
:100838001360237A012B54D02268136823F00053E5
:100848001360637A012B52D02268136823F40013D3
:1008580013602268136823F4CE4323F0080313605F
:10086800E368022B49D0237C012B4CD02268136803
:1008780023F010031360637C012B4AD022681368AD
:1008880023F0200313602268536923F0634303F0C5
:10089800FF23536120684269E369216A013943EA09
:1008A8000143616A01390B4313434361636863631E
:1008B800E368A363A369E363237C84F84030226878
:1008C800136843F001031360012384F84C300020BF
:1008D80010BD4368012B24D0C368012B9BD1012094
:1008E800F6E72268136843F000531360A9E722680B
:1008F800136843F400131360ABE722681368616957
:100908000B431360AFE72268136843F010031360CA
:10091800B1E72268136843F020031360B3E70120AE
:1009280070470120D4E700BF0061014090F84C30C7
:10093800013BDBB2FD2B1FD810B40468236823F0F9
:10094800E06323F480232360012A0BD00468236822
:10095800090201F07F410B432360026300205DF828
:10096800044B704704682368090201F07F410B4378
:1009780043F480232360F0E70120704738B500294D
:1009880042D004460846002A40D023681B6813F466
:10099800001F3ED0636B43B9216B31B9A16AC969A5
:1009A80019B9012A01D0012531E02BB9236B1BB9F4
:1009B800A36ADB69202B2ED094F84C30012B03D08E
:1009C800032B01D0012522E0A36A1449D962A36A46
:1009D80013495963A36AD96920290FD000211963E3
:1009E8002168134602461C31A06A00F0CFF805467C
:1009F80030B1FF2384F84C30012508E00949EEE7BF
:100A08002046FFF747FE02E0012500E001252846C1
:100A180038BD0125FBE70125F9E700BF310A0008C9
:100A2800470A00083B0A000808B5806AFFF75EFC21
:100A380008BD08B5806AFFF753FC08BD704708B5C4
:100A4800806A03230365FFF7F9FF08BD30B4446CDF
:100A580004F01C0C012404FA0CF4056C6C600468A6
:100A680063608368102B05D0036899600368DA60B7
:100A780030BC704703689A600368D960F8E70000E3
:100A8800002874D010B4034602683A498A424BD809
:100A9800394911443948A0FB010109098900596401
:100AA80037491964022183F8251011686FF30E1174
:100AB8001160186801689A68DC6822431C6922433F
:100AC8005C6922439C692243DC6922431C6A2243F5
:100AD8000A4302609A68B2F5804F1BD0196C284A05
:100AE80091422CD0264AD2F8A814586C00F01C0C5D
:100AF8000F2000FA0CF021EA0001C2F8A814D2F87D
:100B0800A81458685C6C04F01C0C00FA0CF0014343
:100B1800C2F8A8140020D863012283F8252083F89E
:100B280024005DF8044B7047164911441348A0FB94
:100B3800010109098900596413491964B2E7D2F817
:100B4800A810586C00F01C0C0F2000FA0CF021EAD9
:100B58000001C2F8A810D2F8A81058685C6C04F01C
:100B68001C0C00FA0CF00143C2F8A810D2E70120CF
:100B7800704700BF07040240F8FFFDBFCDCCCCCCC6
:100B880000000240F8FBFDBF0004024038B50446EF
:100B980090F82400012833D0012084F8240094F828
:100BA8002500012806D08023E363002384F824303D
:100BB800012038BD022084F825000020E063256864
:100BC800286820F0010028602046FFF73FFF236BCC
:100BD8005BB12268136843F00E0313602268136840
:100BE80043F0010313600020E3E72268136823F051
:100BF800040313602268136843F00A031360EDE7E7
:100C08000220D6E7034610B390F82520022A06D022
:100C18000422C263002280F8242001207047016862
:100C28000A6822F001020A6001680A6822F00E02CE
:100C38000A60426C02F01C02006C012101FA02F207
:100C4800426083F82510002083F8240070470120B3
:100C5800704708B590F82530022B03D00423C363EE
:100C6800012008BD0268136823F0010313600268BD
:100C7800136823F00E031360436C03F01C03016C2C
:100C8800012202FA03F34B6080F82520002380F844
:100C98002430836B13B198470020E2E70020E0E797
:100CA80038B5036C196804682568436C03F01C03A5
:100CB80004229A400A4215D015F0040F12D0236876
:100CC80013F0200F03D1236823F004032360436C3F
:100CD80003F01C02016C042393404B60036B03B1C7
:100CE800984738BD02229A400A4228D015F0020FD0
:100CF80025D0236813F0200F06D1236823F00A03B8
:100D08002360012380F8253002681C4B9A420ED9D3
:100D1800436C03F01C0202239340194A53600023DA
:100D280080F82430C36A002BDBD09847D9E7436C9E
:100D380003F01C0202239340124A5360EFE7082293
:100D480002FA03F30B42CCD015F0080FC9D0236880
:100D580023F00E032360436C03F01C03016C012293
:100D680002FA03F34B60C26380F82520002380F861
:100D78002430436B002BB4D09847B2E78000024080
:100D88000004024000000240F0B583B000236BE08D
:100D980085685E000324B44025EA0405CC68B440A5
:100DA8002C438460456825EA0C054C68C4F300149C
:100DB8009C402C43446069E0C56A25EA0C05C4F3ED
:100DC800C0049C402C43C46266E0DD08083550F836
:100DD800254003F0070C4FEA8C0C4FF00F0E0EFA6B
:100DE8000CFE24EA0E0E0C6904FA0CF444EA0E0414
:100DF80040F8254067E0062400E0002404FA0EF4D9
:100E08002C430CF1020C5C4D45F82C405B4CA5685A
:100E1800D44325EA02064F6817F4801F01D042EA3E
:100E28000506564DAE60ED6804EA05064F6817F4EE
:100E3800001F01D042EA0506504DEE606D6804EAD5
:100E480005064F6817F4003F01D042EA05064B4DEE
:100E58006E602D682C404E6816F4803F01D042EA3F
:100E68000504464A146001330A6832FA03F400F0B4
:100E780081804FF0010C0CFA03FC1CEA0202F2D04C
:100E88004C6804F00304013C012C81D94C6804F03F
:100E9800030EBEF1030F8FD04C6804F00304032C3B
:100EA8000CD0C4685D004FF0030C0CFA05FC24EA72
:100EB8000C0C8C68AC4044EA0C04C4604C6804F028
:100EC8000304022C81D004684FEA430E4FF0030C50
:100ED8000CFA0EFC24EA0C0C4C6804F0030404FA27
:100EE8000EF444EA0C0404604C6814F4403FBAD091
:100EF800234C256E45F001052566246E04F0010497
:100F08000194019C4FEA930C0CF102051A4C54F819
:100F1800255003F0030E4FEA8E0E0F2404FA0EF448
:100F280025EA0405B0F1904F3FF467AF154CA04295
:100F380016D004F58064A04214D004F58064A04261
:100F480012D004F58064A04210D004F58064A04259
:100F58000ED004F58064A0423FF44DAF07244DE75E
:100F680001244BE7022449E7032447E7042445E723
:100F7800052443E703B0F0BD000001400004014030
:100F880000100240000400480AB181617047816284
:100F98007047436901EA030221EA030141EA024179
:100FA8008161704782B00A4B1A6E42F001021A66DC
:100FB8001A6E02F001020092009A9A6D42F0805275
:100FC8009A659B6D03F080530193019B02B07047B3
:100FD8000010024010B5AAB00446002125912691C0
:100FE800279128912991882203A801F098FE304B77
:100FF8001B682BB122682F4B9A4239D02AB010BDFA
:101008004FF48033039303A800F064FF10BB2A4A0F
:10101800136801331360012B1FD0284BDA6C42F0A0
:101028001002DA64DB6C03F010030293029B4FF4A6
:1010380020732593022326930023279328930623BE
:10104800299325A91E48FFF79FFE194A1368013303
:101058001360CFE7FFF750F9D9E7184B1A6E42F043
:1010680080721A661B6E03F080730193019BD4E7AC
:10107800144803F51F43443303600023436083602F
:10108800C360802202614FF4007242614FF4006233
:1010980082612022C2610362FFF7F2FC28B9094B82
:1010A800E3629C62A3629C62A8E7FFF725F9F6E772
:1010B80000220020006101400422002000100240AC
:1010C800001000480421002000B5ABB00021259194
:1010D8002691279128912991882203A801F01FFEC3
:1010E8001E4B1B6813B12BB05DF804FB4FF4803323
:1010F800039303A800F0EEFE10BB194A13680133EE
:101108001360012B1FD0174BDA6C42F01002DA641F
:10111800DB6C03F010030293029B4FF420732593BA
:10112800022326930023279328930623299325A98E
:101138000D48FFF729FE094A136801331360D2E707
:10114800FFF7DAF8D9E7074B1A6E42F080721A6691
:101158001B6E03F080730193019BD4E700220020EB
:1011680004220020001002400010004870B5AAB008
:1011780004460021259126912791289129918822BA
:1011880003A801F0CCFD22682A4B9A4201D02AB06C
:1011980070BD0423039303A800F09CFE002842D1ED
:1011A800254B9A6D42F480229A659A6D02F480224A
:1011B8000192019ADA6C42F00802DA64DB6C03F0FF
:1011C80008030293029B4FF4407325930226269648
:1011D80000252795032328930723299325A9174832
:1011E800FFF7D2FD1648174B036046601023836053
:1011F800C560802303614FF4007343614FF40063BB
:1012080083612023C3610562FFF73AFC70B90C4B78
:1012180023679C62002211462720FFF7EBF927205D
:10122800FFF7F8F9B3E7FFF767F8B9E7FFF764F8EE
:10123800EDE700BF0048004000100240000C0048E5
:10124800342000201C000240024B186800F4C060E3
:10125800704700BF00700040B0F5007F0FD01F4BF3
:101268001B6803F4C063B3F5806F34D01B4A13685E
:1012780023F4C06343F48063136000207047174B66
:101288001B6803F4C063B3F5007F20D0134A1368CA
:1012980023F4C06343F400731360114B1B683222BC
:1012A80002FB03F30F4AA2FB03239B0C013300E06C
:1012B800013B0A4A526912F4806F01D0002BF7D122
:1012C800064B5B6913F4806F03D100207047002040
:1012D8007047032070470020704700BF007000402F
:1012E8000800002083DE1B4330B583B00446204B42
:1012F8009B6D13F0805F0BD0FFF7A6FFB0F5007F62
:1013080017D0802C1FD82DD0702C2DD000211BE099
:10131800174DAB6D43F08053AB65AB6D03F0805355
:101328000193019BFFF790FFAB6D23F08053AB65F2
:10133800E4E7802C03D9A02C03D9022104E0002182
:1013480002E0012100E003210A4A136823F00703A1
:101358000B431360136803F007038B4206D1002088
:1013680003B030BD0221EFE70121EDE70120F7E7E7
:101378000010024000200240254A9368D26802F01B
:10138800030213F00C0309D00C2B05D0042B3BD01F
:10139800082B3BD000200FE0012AF7D11C4A126825
:1013A80012F0080F0CD11A4AD2F89420C2F3032283
:1013B800184951F8220013B10C2B06D000207047B1
:1013C800134A1268C2F30312F2E7114BDB6803F009
:1013D8000303022B16D0032B00D10F480C49CA680F
:1013E800C2F302120132CB68C3F3062300FB03F3F6
:1013F800B3FBF2F3C868C0F3416001304000B3FBAF
:10140800F0F070470548E9E704487047024870471C
:10141800001002409030000800127A000024F40006
:10142800002800F0F182F0B583B00446964B9D6821
:1014380005F00C05DE6806F00306036813F0100FCC
:101448005AD0E5B10C2D18D0A369002B00F0BB8051
:101458008D4A136843F001031360FFF75DF80746F0
:10146800894B1B6813F0020F40F09A80FFF754F87D
:10147800C01B0228F4D90320D1E2012EE4D1824B0B
:101488001B6813F0020F03D0A369002B00F0BE8283
:10149800206A7D4B1B6813F0080F5BD07A4B1B68E2
:1014A80003F0F00398425CD8774B1A6842F00802C0
:1014B8001A601A6822F0F002216A0A431A605A6810
:1014C80022F47F42E16942EA01225A60002D60D08D
:1014D800FFF752FF6C4B9B68C3F303136B4AD35C53
:1014E80003F01F03D8406A4B18606A4B1868FEF770
:1014F800CFFF002840F09382236813F0010F00F01B
:101508008180082D75D00C2D71D06368B3F5803FAC
:1015180000F09780B3F5A02F00F099805A4B1A6815
:1015280022F480321A601A6822F480221A606368F2
:10153800002B00F09980FEF7EFFF0746524B1B681F
:1015480013F4003F5ED1FEF7E7FFC01B6428F5D90E
:10155800032064E24C4BD3F894301B0903F0F003EA
:10156800A0E7FFF7C1FE002840F05282464B1A68F8
:1015780042F008021A601A6822F0F002216A0A434F
:101588001A605A6822F47F42E16942EA01225A60ED
:101598009EE7206AFFF7A8FE002899D001203EE2C6
:1015A800394B1A6842F008021A601A6822F0F002F1
:1015B800216A0A431A605A6822F47F42E16942EAC2
:1015C80001225A6098E7304A136823F00103136038
:1015D800FEF7A2FF07462C4B1B6813F0020F8BD0B7
:1015E800FEF79AFFC01B0228F5D9032017E2032E45
:1015F8008BD1254B1B6813F4003F03D06368002B85
:1016080000F00882236813F0020F58D0042D45D04B
:101618000C2D41D0E368002B77D01B4A136843F4A4
:1016280080731360FEF778FF0646174B1B6813F4A8
:10163800806F61D1FEF770FF801B0228F5D9032067
:10164800EDE1114A136843F4803313606FE703F147
:101658008043A3F53C331A6842F480221A601A6862
:1016680042F480321A6062E7FEF756FF0746064BDF
:101678001B6813F4003FC5D0FEF74EFFC01B64285B
:10168800F5D90320CBE100BF00100240C8300008A4
:101698000800002004000020022EBBD1A34B1B68C9
:1016A80013F4806F03D0E368002B00F0B5819F4AE4
:1016B800536823F0F853216943EA016353602368B0
:1016C80013F0080F4CD063699BB3984AD2F8943052
:1016D80043F00103C2F89430FEF71EFF0646934B11
:1016E800D3F8943013F0020F3AD1FEF715FF801BA0
:1016F8000228F4D9032092E18C4A536823F0F85366
:10170800216943EA01635360D9E7884A136823F4DF
:1017180080731360FEF700FF0646844B1B6813F4C2
:10172800806FCCD0FEF7F8FE801B0228F5D9032085
:1017380075E17E4AD2F8943023F00103C2F8943060
:10174800FEF7EAFE0646794BD3F8943013F0020F01
:1017580006D0FEF7E1FE801B0228F4D903205EE1E3
:10176800236813F0040F7AD0704B9B6D13F0805FE1
:1017780036D16E4B9A6D42F080529A659B6D03F09C
:1017880080530193019B0126694B1B6813F4807FEA
:1017980028D0A368012B39D0052B3FD0634BD3F851
:1017A800902022F00102C3F89020D3F8902022F074
:1017B8000402C3F89020A368002B3DD0FEF7ACFECE
:1017C80007465A4BD3F8903013F0020F46D1FEF774
:1017D800A3FEC01B41F288339842F2D903201EE1D0
:1017E8000026D1E7524A136843F480731360FEF76A
:1017F80093FE07464E4B1B6813F4807FC9D1FEF752
:101808008BFEC01B0228F5D9032008E1474AD2F80D
:10181800903043F00103C2F89030CCE7434BD3F843
:10182800902042F00402C3F89020D3F8902042F0B0
:101838000102C3F89020BEE7FEF76EFE07463B4B59
:10184800D3F8903013F0020F08D0FEF765FEC01BE6
:1018580041F288339842F2D90320E0E0EEB9A36A56
:10186800002B00F0DB80022B1DD00C2D00F0DD805A
:101878002E4A136823F080731360FEF74DFE04466A
:101888002A4B1B6813F0007F00F0B780FEF744FE78
:10189800001B0228F4D90320C1E0244A936D23F0E9
:1018A80080539365DBE7214BDB6803F00301E26AB1
:1018B80091420FD00C2D00F0B4801C4B1B6813F024
:1018C800806F40F0B080194B1B6813F0805F31D0F7
:1018D8000120A4E003F07002216B0139B2EB011F73
:1018E800E8D103F4FE42616BB2EB012FE2D103F4BD
:1018F8000031A26B073A18BF01229142DAD103F4F2
:10190800C001E26B5208013AB1EB425FD2D103F059
:10191800C063226C5208013AB3EB426FCAD1034B41
:101928001B6813F0007F4ED0002078E000100240C2
:10193800007000403E4A136823F080731360FEF77E
:10194800EBFD05463A4B1B6813F0007F06D0FEF707
:10195800E3FD401B0228F5D9032060E0344AD36830
:1019680034491940E36A206B013843EA0013606B7D
:1019780043EA0023E06B4008013843EA4053206CF7
:101988004008013843EA4063A06B000943EA40433A
:101998001943D160136843F080731360D36843F030
:1019A8008073D360FEF7B8FD0446214B1B6813F023
:1019B800007F06D1FEF7B0FD001B0228F5D90320F1
:1019C8002DE000202BE01A4B1A6842F080721A6052
:1019D800DA6842F08072DA60FEF79EFD0446144B26
:1019E8001B6813F0007F06D1FEF796FD031B022B40
:1019F800F5D9032013E0002011E00D4AD1680E4B01
:101A08000B40D36000200AE001207047012006E067
:101A1800012004E0012002E0012000E0002003B0E2
:101A2800F0BD0120FBE70120F9E70120F7E700BF3F
:101A3800001002408C809DF9FCFFEEFE002800F0AB
:101A4800AF8070B50D460446594B1B6803F0070379
:101A58008B420BD2564A136823F007030B431360DB
:101A6800136803F007038B4240F09C80236813F04F
:101A7800020F0CD0A2684F4B9B6803F0F0039A4208
:101A880005D94C498B6823F0F0031A438A60236810
:101A980013F0010F39D06368032B09D0022B26D02D
:101AA80063BB444A126812F0020F06D1012076E0A7
:101AB800404A126812F0007F76D03E498A6822F0C8
:101AC800030213438B60FEF727FD0646394B9B68DC
:101AD80003F00C036268B3EB820F16D0FEF71CFD0F
:101AE800801B41F288339842F0D9032057E0314AED
:101AF800126812F4003FE0D1012050E02D4A12682C
:101B080012F4806FD9D1012049E0236813F0020F45
:101B18000CD0A268274B9B6803F0F0039A4205D2C9
:101B280024498B6823F0F0031A438A60204B1B6812
:101B380003F00703AB420AD91D4A136823F00703D1
:101B48002B431360136803F00703AB422ED12368BD
:101B580013F0040F06D0174A936823F4E063E16892
:101B68000B439360236813F0080F07D0114A93685A
:101B780023F46053216943EAC1039360FFF7FCFB38
:101B88000C4B9B68C3F303130B4AD35C03F01F038E
:101B9800D8400A4B18600A4B1868FEF779FC70BDEC
:101BA800012070470120FAE70120F8E70120F6E755
:101BB8000020024000100240C83000080800002041
:101BC80004000020014B1868704700BF080000207F
:101BD80008B5FFF7F7FF054B9B68C3F30223044AD8
:101BE800D35C03F01F03D84008BD00BF00100240BB
:101BF800C030000808B5FFF7E5FF054B9B68C3F345
:101C0800C223044AD35C03F01F03D84008BD00BFB9
:101C180000100240C0300008F8B504460D46594B84
:101C2800DB6813F0030F18D0564BDB6803F003038F
:101C38000268934202D001263046F8BD002A00F01F
:101C48009D80504BDB68C3F3021301334268934213
:101C580001D00126F0E7002619E00368022B56D0D0
:101C6800032B5BD0012B40F08B80464A126812F0A0
:101C7800020F5FD04348C26822F0730261680139DD
:101C880043EA01131343C3600026002ED4D13D4A12
:101C9800136823F080631360FEF73EFC0746394B58
:101CA8001B6813F0006F05D0FEF736FCC31B022B30
:101CB800F5D90326002EBFD1002D3DD131490B693E
:101CC80023F41F3323F44073A068E2681209520416
:101CD80042EA002213430B612A4A136843F08063E7
:101CE8001360FEF719FC0546264B1B6813F0006FBE
:101CF80005D1FEF711FC401B0228F5D90326002E5A
:101D08009AD1204A1369A1690B43136194E71D4ACC
:101D1800126812F4806FADD101268DE7194A126856
:101D280012F4003FA6D1174A126812F4802FA1D1ED
:101D3800012681E70126A8E7012D0FD01148026985
:101D480022F0C06222F4FE42A16863695B08013B8D
:101D58005B0643EA01231A430261BDE709480269A9
:101D680022F4C00222F4FE42A16823695B08013B09
:101D78005B0543EA01231A430261ADE701265BE7ED
:101D8800012659E700100240F8B504460D46504BAD
:101D9800DB6813F0030F18D04D4BDB6803F0030327
:101DA8000268934202D001263046F8BD002A00F0AE
:101DB8008A80474BDB68C3F30213013342689342BE
:101DC80001D00126F0E7002618E00368022B55D061
:101DD800032B5AD0012B78D13D4A126812F0020F1A
:101DE8005FD03B48C26822F073026168013943EA58
:101DF80001131343C3600026002ED5D1344A13685B
:101E080023F080531360FEF787FB0746304B1B68AF
:101E180013F0005F05D0FEF77FFBC31B022BF5D93B
:101E28000326002EC0D1002D3DD129494B6923F44A
:101E38001F3323F44073A068E2681209520442EA8F
:101E4800002213434B61224A136843F08053136006
:101E5800FEF762FB05461E4B1B6813F0005F05D1B9
:101E6800FEF75AFB401B0228F5D90326002E9BD10A
:101E7800174A536961690B43536195E7144A12681D
:101E880012F4806FADD101268EE7114A126812F460
:101E9800003FA6D10E4A126812F4802FA1D1012664
:101EA80082E70126A8E70A48426922F0C06222F4C4
:101EB800FE42A16823695B08013B5B0643EA0123F4
:101EC8001A434261BFE701266EE701266CE700BFAF
:101ED800001002402DE9F04182B00446036813F473
:101EE800006F33D0436EB3F5000F15D00CD823B371
:101EF800B3F5800F05D100212030FFF745FF0646D6
:101F080020E001273E4623E0B3F5400F01D100262B
:101F180008E001273E461BE05E4AD36843F480335D
:101F2800D36000265B4AD2F8883023F44003616E00
:101F38000B43C2F8883000270AE000210430FFF77D
:101F48006BFE0646002EEDD0374601E000273E46E0
:101F5800236813F4805F30D0A36EB3F1007F1FD0E5
:101F68000DD81BB3B3F1807F06D1002104F1200006
:101F7800FFF70AFF064605E001273E461DE0B3F1DC
:101F8800407F0AD1C6B9434AD2F8883023F040735B
:101F9800A16E0B43C2F888300FE001273E460CE0E3
:101FA8003C4AD36843F48033D360EBE70021201D1B
:101FB800FFF732FE0646E5E73746236813F4003F8D
:101FC80071D0344B9B6D13F0805F4ED1314B9A6DBD
:101FD80042F080529A659B6D03F080530193019BF8
:101FE8004FF001082C4A136843F480731360FEF71E
:101FF80093FA0546284B1B6813F4807F05D1FEF73A
:102008008BFA401B0228F5D90326002E46D1214B16
:10201800D3F8903013F4407319D0D4F884209A423E
:1020280012D01C4AD2F8903023F44073D2F89010A2
:1020380041F48031C2F89010D2F8901021F4803128
:10204800C2F89010C2F8903013F0010F10D1002E92
:1020580040F027810F4AD2F8903023F44073D4F827
:1020680084100B43C2F8903019E04FF00008B9E72C
:10207800FEF752FA0546074BD3F8903013F0020FDB
:10208800E5D1FEF749FA401B41F288339842F2D96C
:102098000326DCE700100240007000403746B8F124
:1020A800000F40F00081236813F0010F08D09D4A0B
:1020B800D2F8883023F00303A16B0B43C2F88830B1
:1020C800236813F0020F08D0964AD2F8883023F01C
:1020D8000C03E16B0B43C2F88830236813F0040F3C
:1020E80008D0904AD2F8883023F03003216C0B4393
:1020F800C2F88830236813F0080F08D0894AD2F84C
:10210800883023F0C003616C0B43C2F88830236821
:1021180013F0100F08D0834AD2F8883023F44073A4
:10212800A16C0B43C2F88830236813F0200F08D045
:102138007C4AD2F8883023F44063E16C0B43C2F840
:102148008830236813F4007F08D0764AD2F88830A4
:1021580023F44023E16D0B43C2F88830236813F45D
:10216800806F08D06F4AD2F8883023F44013216E6C
:102178000B43C2F88830236813F0400F08D0694A2F
:10218800D2F8883023F44053216D0B43C2F88830CD
:10219800236813F0800F08D0624AD2F8883023F4FD
:1021A8004043616D0B43C2F88830236813F4807F85
:1021B80008D05C4AD2F8883023F44033A16D0B4331
:1021C800C2F88830236813F4005F0FD0554AD2F85C
:1021D800883023F04063E16E0B43C2F88830E36E29
:1021E800B3F1006F65D0B3F1806F67D0236813F443
:1021F800002F0FD04B4AD2F8883023F04063216F6C
:102208000B43C2F88830236FB3F1006F5ED0B3F18F
:10221800806F60D0236813F4802F0FD0414AD2F822
:10222800883023F04063616F0B43C2F88830636FD6
:10223800B3F1006F57D0B3F1806F59D0236813F40E
:10224800804F0FD0374AD2F8883023F04053A16F1F
:102258000B43C2F88830A36FB3F1805F50D0B3F15D
:10226800005F55D0236813F4004F08D02D4AD2F8E8
:10227800883023F08043E16F0B43C2F8883023682D
:1022880013F4803F09D0274AD2F8883023F000435E
:10229800D4F880100B43C2F88830384602B0BDE845
:1022A800F0813746FBE61F4A936D23F08053936510
:1022B800F9E6D36843F48013D36097E70121201D22
:1022C800FFF7AAFC002891D007468FE7D36843F4AC
:1022D8008013D3609EE70121201DFFF79DFC002895
:1022E80098D0074696E7D36843F48013D360A5E7F0
:1022F8000121201DFFF790FC00289FD007469DE78D
:102308000221201DFFF788FC0028ABD00746A9E76B
:10231800022104F12000FFF737FD0028A2D007466C
:10232800A0E700BF00100240026852E8003F23F413
:10233800907342E800310029F6D1026802F10803DF
:1023480053E8003F23F00103083242E80031002936
:10235800F3D1036E012B06D02023C0F88030002370
:10236800036683667047026852E8003F23F0100353
:1023780042E800310029F6D1EEE7704708B5026857
:1023880052E8003F23F0400342E800310029F6D12B
:102398002023C3670023C366FFF7EFFF08BD70471C
:1023A80008B5806AFFF7FBFF08BD704770B50446A3
:1023B8000268D3691168906840F60F0C13EA0C0F95
:1023C8000AD113F0200F0DD011F0200F0AD0A36E00
:1023D8000BB3204698471EE010F001051CD1AD4E06
:1023E800314219D1256E012D00F0A48013F4801F0D
:1023F80003D010F4800F40F0468113F0800F03D013
:1024080011F0800F40F04A8113F0400F03D011F013
:10241800400F40F04A8170BD13F0010F09D011F44C
:10242800807F06D001201062D4F884200243C4F8CB
:10243800842013F0020F09D045B1226802201062EF
:10244800D4F8842042F00402C4F8842013F0040F66
:1024580009D045B1226804201062D4F8842042F0E3
:102468000202C4F8842013F0080F0BD011F0200FDB
:1024780000D13DB1226808201062D4F884200243BC
:10248800C4F8842013F4006F0CD011F0806F09D0C9
:1024980022684FF400601062D4F8842042F02002D1
:1024A800C4F88420D4F88420002AB4D013F0200F74
:1024B80006D011F0200F03D0A36E0BB12046984729
:1024C800D4F8842023689B6813F0400F02D112F0DF
:1024D800280F28D02046FFF727FF23689B6813F0B2
:1024E800400F1CD0226802F1080353E8003F23F094
:1024F8004003083242E800310029F3D1636F53B139
:10250800654A9A63606FFEF7A4FB002883D0606F6A
:10251800836B98477FE72046FFF741FF7BE720461C
:10252800FFF73DFF77E72046FFF739FF0023C4F8A0
:10253800843070E713F0100F3FF458AF11F0100F0C
:102548003FF454AF1023136223689B6813F0400FC5
:102558005FD0616F0A6853689BB2002B49D0B4F80A
:102568005800984245D9A4F85A300B681B6813F0F4
:10257800200F31D1226852E8003F23F4807342E8EB
:1025880000310029F6D1226802F1080353E8003F20
:1025980023F00103083242E800310029F3D1226810
:1025A80002F1080353E8003F23F04003083242E8F1
:1025B80000310029F3D12023C4F88030002323669A
:1025C800226852E8003F23F0100342E80031002956
:1025D800F6D1606FFEF716FB02236366B4F8581055
:1025E800B4F85A309BB2C91A89B22046FFF7DDFE0B
:1025F80011E7B4F8581099427FF40DAF136813F03F
:10260800200F3FF408AF022363662046FFF7CDFE94
:1026180001E7B4F85810B4F85A309BB2C91A89B215
:10262800B4F85A309BB2002B3FF4F5AE00293FF4C2
:10263800F2AE226852E8003F23F4907342E800307B
:102648000028F6D1226802F1080353E8003F23F07E
:102658000103083242E800300028F3D12023C4F8EF
:10266800803000232366A366226852E8003F23F0E7
:10267800100342E800300028F6D1022363662046A2
:10268800FFF793FEC7E64FF480131362204600F06D
:10269800EDFAC0E620010004A9230008E36E002B30
:1026A8003FF4B9AE20469847B5E62046FFF766FEE8
:1026B800B1E600BF10B50446836802691343426956
:1026C8001343C2691343016808688F4A02401A43DA
:1026D8000A602268536823F44053E1680B4353604F
:1026E800A1692268894B9A4201D0236A19439368E9
:1026F80023F430630B4393602368854A934210D0D8
:10270800844A934221D0844A93424DD0834A9342CB
:102718005DD0834A93426CD07C4A93427ED010228B
:102728002BE002F55842D2F8882002F00302032A6F
:1027380009D8DFE802F00204880601221DE004221D
:102748001BE0082219E0102217E002F5E632D2F861
:10275800882002F00C020C2A0ED8DFE802F0070DE0
:102768000D0D090D0D0D760D0D0D0B00002204E069
:10277800042202E0082200E0102264498B4200F0A3
:102788008680E069B0F5004F00F0B280082A00F2B8
:102798001981DFE812F0ED000001EB0017010301D9
:1027A800170117011701060102F5E432D2F8882053
:1027B80002F03002202A4AD005D8002A49D0102A2F
:1027C80049D10422D9E7302A47D10822D5E702F5B2
:1027D800E232D2F8882002F0C002802A3FD004D822
:1027E800FAB3402A3FD10422C7E7C02A3DD10822C4
:1027F800C3E702F5E032D2F8882002F44072B2F55D
:10280800007F34D005D8A2B3B2F5807F33D104223B
:10281800B3E7B2F5407F30D10822AEE702F5C832FF
:10282800D2F8882002F44062B2F5006F27D005D8AC
:102838003AB3B2F5806F26D104229EE7B2F5406F15
:1028480023D1082299E7022297E7022295E702227C
:1028580093E7002291E710228FE710228DE70222EA
:102868008BE7002289E7102287E7102285E70222FA
:1028780083E7002281E710227FE710227DE702220A
:102888007BE7002279E7102277E7102275E7082A0C
:1028980000F28A80DFE802F0088810880D888888AE
:1028A80005004FF4004008E0FFF792F928B900202E
:1028B80089E0FEF761FDF9E71A48626802EB420316
:1028C800834273D8B0EB023F72D8010E000253085E
:1028D800C0184FF0000341F10001FDF751FCA0F5CD
:1028E8004072114B9A4265D82368D86000206AE08C
:1028F800082A61D8DFE802F01A34056037606060A2
:102908001E00084816E000BFF369FFEF0080004092
:10291800003801400044004000480040004C00409E
:10292800005000400024F400FFFC0F00FFF750F9AE
:10293800002843D06268530803EB4003B3FBF2F36B
:10294800A3F110014FF6EF72914239D89AB222F0F2
:102958000F02C3F3420313432268D360002032E01E
:10296800FFF748F9E4E7FEF707FDE1E71A4802E058
:10297800FFF72EF958B3636800EB5300B0FBF3F090
:10298800A0F110024FF6EF739A4222D8236880B262
:10299800D860002017E0FFF72DF9EBE7FEF7ECFC15
:1029A800E8E74FF40040E6E701200CE001200AE0E8
:1029B800012008E0012006E0012004E0002002E0F8
:1029C800012000E001200023A366E36610BD00207B
:1029D800F9E70120F7E700BF0024F400436A13F089
:1029E800080F06D00268536823F40043416B0B4379
:1029F8005360436A13F0010F06D00268536823F44A
:102A08000033816A0B435360436A13F0020F06D008
:102A18000268536823F48033C16A0B435360436AE6
:102A280013F0040F06D00268536823F48023016B67
:102A38000B435360436A13F0100F06D00268936883
:102A480023F48053816B0B439360436A13F0200F88
:102A580006D00268936823F40053C16B0B4393605C
:102A6800436A13F0400F0AD00268536823F48013B6
:102A7800016C0B435360036CB3F5801F0BD0436AA2
:102A880013F0800F06D00268536823F40023816C8A
:102A98000B43536070470268536823F4C003416CCA
:102AA8000B435360EBE72DE9F84305460E461746FE
:102AB8009946DDF820802B68DC6936EA04040CBFEF
:102AC80001240024BC4236D1B8F1FF3FF3D0FDF712
:102AD80023FDA0EB0900404530D8B8F1000F2FD0F6
:102AE8002B681A6812F0040FE5D0802EE3D0402E30
:102AF800E1D0DA6912F0080F11D1DA6912F4006F27
:102B0800D9D04FF400621A622846FFF70DFC202343
:102B1800C5F88430002385F8783003200CE00824B9
:102B28001C622846FFF700FCC5F88440002385F89E
:102B38007830012000E00020BDE8F8830320FBE79F
:102B48000320F9E730B583B004460023C0F8843089
:102B5800FDF7E2FC05462268126812F0080F0FD153
:102B680023681B6813F0040F26D12023E367C4F8F9
:102B7800803000202066606684F8780003B030BD9D
:102B88006FF07E430093034600224FF40011204665
:102B9800FFF789FF0028E3D0226852E8003F23F0BE
:102BA800800342E800310029F6D12023E36700239F
:102BB80084F878300320E1E76FF07E4300932B46DA
:102BC80000224FF480012046FFF76DFF0028CCD08B
:102BD800226852E8003F23F4907342E8003100294C
:102BE800F6D1226802F1080353E8003F23F00103FD
:102BF800083242E800310029F3D12023C4F880309C
:102C0800002384F878300320B8E768B310B5044689
:102C1800C36F03B32423E3672268136823F0010317
:102C28001360636AE3B92046FFF744FD012811D019
:102C38002268536823F4904353602268936823F012
:102C48002A0393602268136843F001031360204647
:102C5800FFF778FF10BD80F87830FEF787FAD9E7DC
:102C68002046FFF7BBFEDEE7012070477047FEE70E
:102C7800FEE7FEE7FEE7FEE770477047704708B5D6
:102C8800FDF73EFC08BD000008B50248FEF708F84D
:102C980008BD00BF3420002008B50248FEF700F840
:102CA80008BD00BF0421002008B50248FFF77EFBDD
:102CB80008BD00BF7C200020034AD2F8883043F4C6
:102CC8007003C2F88830704700ED00E0DFF834D0B8
:102CD800FFF7F2FF0C480D490D4A002302E0D458D3
:102CE800C4500433C4188C42F9D30A4A0A4C00234E
:102CF80001E013600432A242FBD300F019F8FDF79B
:102D0800A1FBFEE700800120000000201000002049
:102D1800F03000081000002008220020FEE70244DE
:102D28000346934200D1704703F8011BF9E70000FE
:102D380070B50D4B0D4D5B1B9C100026A64209D1AA
:102D480000F096F90A4D0B4B5B1B9C100026A6421F
:102D580005D170BD55F8043B98470136EEE755F8A4
:102D6800043B98470136F2E7E0300008E0300008FD
:102D7800E0300008E43000082DE9F047089D0F46D0
:102D880004468C46002B48D18A42164661D9B2FACD
:102D980082F34BB1C3F1200201FA03FC20FA02F2DC
:102DA8009E4042EA0C0C9C404FEA164EB7B2BCFB60
:102DB800FEF1220C0EFB11CC42EA0C4201FB07F09B
:102DC800904209D9B21801F1FF3C80F0EE809042A0
:102DD80040F2EB8002393244121AA4B2B2FBFEF080
:102DE8000EFB102244EA024400FB07F7A74209D968
:102DF800341900F1FF3280F0DA80A74240F2D78020
:102E08003444023840EA0140E41B00211DB1DC4093
:102E18000023C5E90043BDE8F0878B4206D90DB110
:102E2800C5E9000100210846BDE8F087B3FA83F13F
:102E3800002948D1BB4202D3824200F20781841A9A
:102E480067EB030201209446002DE4D0C5E9004C4D
:102E5800E1E7002A00F09280B2FA82F3002B40F0FA
:102E6800A8808A1A4FEA164E1FFA86FC0121200C08
:102E7800B2FBFEF70EFB172240EA02420CFB07F0FA
:102E8800904207D9B21807F1FF3802D2904200F2F7
:102E9800E2804746121AA4B2B2FBFEF00EFB1022E3
:102EA80044EA02440CFB00FCA44507D9341900F19C
:102EB800FF3202D2A44500F2CB801046A4EB0C04EA
:102EC80040EA0740A2E7C1F120068B4022FA06FC3F
:102ED8004CEA030C07FA01F420FA06F3F7404FEA2C
:102EE8001C49234300FA01F81FFA8CFEB7FBF9F0DE
:102EF8001C0C09FB107744EA074400FB0EF7A742B5
:102F080002FA01F20AD91CEB040400F1FF3A80F03E
:102F18009B80A74240F2988002386444E41B9FB229
:102F2800B4FBF9F309FB134447EA044403FB0EFE20
:102F3800A64509D91CEB040403F1FF3780F0828011
:102F4800A6457FD9023B644443EA0040A4EB0E0443
:102F5800A0FB02E7BC427346B94663D360D05DB1BB
:102F6800B8EB030264EB090404FA06F622FA01F34B
:102F78001E43CC40C5E9006400214CE762084808BC
:102F880042EAC1710B0C43EA00438AB242EA0342A7
:102F9800B3FBF6F1E407B4463746B6461F23B0FB49
:102FA800F6F0D21B41EA004161E7614614E710469A
:102FB80028E7C3F1200120FA01F29E4027FA01F127
:102FC8009F403A434FEA164E1FFA86FCB1FBFEF7C4
:102FD8000EFB1710110C41EA004107FB0CF888455D
:102FE80004FA03F43AD9711807F1FF3001D2884581
:102FF8001FD8A1EB0801B1FBFEF808FB0CF70EFB8C
:10300800181192B242EA0142BA422FD2B21808F11C
:10301800FF31C6D2BA42C4D2A8F102013244C0E795
:10302800F0459CD2BEEB020367EB0C070138B946AA
:1030380095E7A6EB08084144B81EB1FBFEF808FB6B
:103048000CF7DCE73B467FE7504667E70846FBE6B8
:103058003444023832E7023F32441BE7A1EB08014F
:103068003846B1FBFEF808FB0CF7C8E7414698E77D
:10307800F8B500BFF8BC08BC9E467047F8B500BF5D
:08308800F8BC08BC9E4670472D
:10309000A0860100400D0300801A060000350C00D8
:1030A00040420F0080841E0000093D0000127A009B
:1030B0000024F40000366E010048E801006CDC02D8
:1030C00000000000010203040000000000000000F6
:0830D0000102030406070809D0
:0830D800A8FCFF7F01000000CD
:0830E000E101000800000000FE
:0830E800BD010008000000001A
:1030F000010000001000000000093D000000000079
:0400000508002CD5EE
:00000001FF
